{
  "abi": [
    {
      "inputs": [
        {
          "internalType": "uint256",
          "name": "x",
          "type": "uint256"
        }
      ],
      "name": "getNumber",
      "outputs": [
        {
          "internalType": "uint256",
          "name": "",
          "type": "uint256"
        }
      ],
      "stateMutability": "view",
      "type": "function"
    }
  ],
  "bytecode": {
    "object": "0x608060405234801561001057600080fd5b50610116806100206000396000f3fe6080604052348015600f57600080fd5b506004361060285760003560e01c8063fc56365814602d575b600080fd5b603c603836600460c8565b604e565b60405190815260200160405180910390f35b6000605a606483036062565b506063190190565b60a481604051602401607691815260200190565b60408051601f198184030181529190526020810180516001600160e01b031663f5b1bba960e01b17905260a7565b50565b80516a636f6e736f6c652e6c6f67602083016000808483855afa5050505050565b60006020828403121560d957600080fd5b503591905056fea2646970667358221220da7b0571efb7072f1eb986d61b96971be7859eb7829626fb1a16d135f1ac3ee064736f6c63430008150033",
    "linkReferences": {}
  },
  "methodIdentifiers": {
    "getNumber(uint256)": "fc563658"
  },
  "id": 17
}