{
  "abi": [
    {
      "inputs": [
        {
          "internalType": "address",
          "name": "adder",
          "type": "address"
        },
        {
          "internalType": "uint256",
          "name": "a",
          "type": "uint256"
        },
        {
          "internalType": "uint256",
          "name": "b",
          "type": "uint256"
        }
      ],
      "name": "getSum",
      "outputs": [
        {
          "internalType": "uint256",
          "name": "",
          "type": "uint256"
        }
      ],
      "stateMutability": "view",
      "type": "function"
    }
  ],
  "bytecode": {
    "object": "0x608060405234801561001057600080fd5b50610219806100206000396000f3fe608060405234801561001057600080fd5b506004361061002b5760003560e01c8063d3fa317714610030575b600080fd5b61004361003e36600461015a565b610055565b60405190815260200160405180910390f35b6000806000856001600160a01b03168585604051602401610080929190918252602082015260400190565b60408051601f198184030181529181526020820180516001600160e01b031663771602f760e01b179052516100b5919061019b565b600060405180830381855afa9150503d80600081146100f0576040519150601f19603f3d011682016040523d82523d6000602084013e6100f5565b606091505b5091509150816101395760405162461bcd60e51b815260206004820152600b60248201526a18d85b1b0819985a5b195960aa1b604482015260640160405180910390fd5b60008180602001905181019061014f91906101ca565b979650505050505050565b60008060006060848603121561016f57600080fd5b83356001600160a01b038116811461018657600080fd5b95602085013595506040909401359392505050565b6000825160005b818110156101bc57602081860181015185830152016101a2565b506000920191825250919050565b6000602082840312156101dc57600080fd5b505191905056fea264697066735822122005662abf5b62a2551d8714f78a8d019b349ea0e11caf3e6ec5210b60ce9ba64064736f6c63430008140033",
    "linkReferences": {}
  },
  "methodIdentifiers": {
    "getSum(address,uint256,uint256)": "d3fa3177"
  },
  "id": 23
}